{
  "contractName": "DeBank",
  "abi": [
    {
      "inputs": [
        {
          "internalType": "contract Rewards",
          "name": "_rewards",
          "type": "address"
        },
        {
          "internalType": "contract Tether",
          "name": "_tether",
          "type": "address"
        }
      ],
      "stateMutability": "nonpayable",
      "type": "constructor"
    },
    {
      "inputs": [],
      "name": "name",
      "outputs": [
        {
          "internalType": "string",
          "name": "",
          "type": "string"
        }
      ],
      "stateMutability": "view",
      "type": "function",
      "constant": true
    },
    {
      "inputs": [],
      "name": "owner",
      "outputs": [
        {
          "internalType": "address",
          "name": "",
          "type": "address"
        }
      ],
      "stateMutability": "view",
      "type": "function",
      "constant": true
    },
    {
      "inputs": [],
      "name": "rewards",
      "outputs": [
        {
          "internalType": "contract Rewards",
          "name": "",
          "type": "address"
        }
      ],
      "stateMutability": "view",
      "type": "function",
      "constant": true
    },
    {
      "inputs": [],
      "name": "tether",
      "outputs": [
        {
          "internalType": "contract Tether",
          "name": "",
          "type": "address"
        }
      ],
      "stateMutability": "view",
      "type": "function",
      "constant": true
    }
  ],
  "bytecode": "0x60806040526040518060400160405280600681526020017f446542616e6b0000000000000000000000000000000000000000000000000000815250600090816200004a919062000382565b503480156200005857600080fd5b50604051620009af380380620009af83398181016040528101906200007e91906200052c565b81600260006101000a81548173ffffffffffffffffffffffffffffffffffffffff021916908373ffffffffffffffffffffffffffffffffffffffff16021790555080600360006101000a81548173ffffffffffffffffffffffffffffffffffffffff021916908373ffffffffffffffffffffffffffffffffffffffff160217905550505062000573565b600081519050919050565b7f4e487b7100000000000000000000000000000000000000000000000000000000600052604160045260246000fd5b7f4e487b7100000000000000000000000000000000000000000000000000000000600052602260045260246000fd5b600060028204905060018216806200018a57607f821691505b602082108103620001a0576200019f62000142565b5b50919050565b60008190508160005260206000209050919050565b60006020601f8301049050919050565b600082821b905092915050565b6000600883026200020a7fffffffffffffffffffffffffffffffffffffffffffffffffffffffffffffffff82620001cb565b620002168683620001cb565b95508019841693508086168417925050509392505050565b6000819050919050565b6000819050919050565b6000620002636200025d62000257846200022e565b62000238565b6200022e565b9050919050565b6000819050919050565b6200027f8362000242565b620002976200028e826200026a565b848454620001d8565b825550505050565b600090565b620002ae6200029f565b620002bb81848462000274565b505050565b5b81811015620002e357620002d7600082620002a4565b600181019050620002c1565b5050565b601f8211156200033257620002fc81620001a6565b6200030784620001bb565b8101602085101562000317578190505b6200032f6200032685620001bb565b830182620002c0565b50505b505050565b600082821c905092915050565b6000620003576000198460080262000337565b1980831691505092915050565b600062000372838362000344565b9150826002028217905092915050565b6200038d8262000108565b67ffffffffffffffff811115620003a957620003a862000113565b5b620003b5825462000171565b620003c2828285620002e7565b600060209050601f831160018114620003fa5760008415620003e5578287015190505b620003f1858262000364565b86555062000461565b601f1984166200040a86620001a6565b60005b8281101562000434578489015182556001820191506020850194506020810190506200040d565b8683101562000454578489015162000450601f89168262000344565b8355505b6001600288020188555050505b505050505050565b600080fd5b600073ffffffffffffffffffffffffffffffffffffffff82169050919050565b60006200049b826200046e565b9050919050565b6000620004af826200048e565b9050919050565b620004c181620004a2565b8114620004cd57600080fd5b50565b600081519050620004e181620004b6565b92915050565b6000620004f4826200048e565b9050919050565b6200050681620004e7565b81146200051257600080fd5b50565b6000815190506200052681620004fb565b92915050565b6000806040838503121562000546576200054562000469565b5b60006200055685828601620004d0565b9250506020620005698582860162000515565b9150509250929050565b61042c80620005836000396000f3fe608060405234801561001057600080fd5b506004361061004c5760003560e01c806306fdde03146100515780635efc071a1461006f5780638da5cb5b1461008d5780639ec5a894146100ab575b600080fd5b6100596100c9565b6040516100669190610262565b60405180910390f35b610077610157565b6040516100849190610303565b60405180910390f35b61009561017d565b6040516100a2919061033f565b60405180910390f35b6100b36101a3565b6040516100c0919061037b565b60405180910390f35b600080546100d6906103c5565b80601f0160208091040260200160405190810160405280929190818152602001828054610102906103c5565b801561014f5780601f106101245761010080835404028352916020019161014f565b820191906000526020600020905b81548152906001019060200180831161013257829003601f168201915b505050505081565b600360009054906101000a900473ffffffffffffffffffffffffffffffffffffffff1681565b600160009054906101000a900473ffffffffffffffffffffffffffffffffffffffff1681565b600260009054906101000a900473ffffffffffffffffffffffffffffffffffffffff1681565b600081519050919050565b600082825260208201905092915050565b60005b838110156102035780820151818401526020810190506101e8565b83811115610212576000848401525b50505050565b6000601f19601f8301169050919050565b6000610234826101c9565b61023e81856101d4565b935061024e8185602086016101e5565b61025781610218565b840191505092915050565b6000602082019050818103600083015261027c8184610229565b905092915050565b600073ffffffffffffffffffffffffffffffffffffffff82169050919050565b6000819050919050565b60006102c96102c46102bf84610284565b6102a4565b610284565b9050919050565b60006102db826102ae565b9050919050565b60006102ed826102d0565b9050919050565b6102fd816102e2565b82525050565b600060208201905061031860008301846102f4565b92915050565b600061032982610284565b9050919050565b6103398161031e565b82525050565b60006020820190506103546000830184610330565b92915050565b6000610365826102d0565b9050919050565b6103758161035a565b82525050565b6000602082019050610390600083018461036c565b92915050565b7f4e487b7100000000000000000000000000000000000000000000000000000000600052602260045260246000fd5b600060028204905060018216806103dd57607f821691505b6020821081036103f0576103ef610396565b5b5091905056fea2646970667358221220d655a0b22c65b9b12175e622fea35a8d295e376e423795acf8ab606d255ca3e964736f6c634300080f0033",
  "immutableReferences": {},
  "source": "// SPDX-License-Identifier: MIT\r\n\r\npragma solidity ^0.8.6;\r\nimport './Rewards.sol';\r\nimport './Tether.sol';\r\n\r\n\r\ncontract DeBank {\r\n    string public name = \"DeBank\";\r\n    address public owner;\r\n    Rewards public rewards;\r\n    Tether public tether;\r\n\r\n    constructor(Rewards _rewards, Tether _tether){\r\n       rewards = _rewards;\r\n       tether = _tether;\r\n    }\r\n}",
  "sourcePath": "C:\\blockchain projects\\Defi-staking-app\\src\\contracts\\DeBank.sol",
  "compiler": {
    "name": "solc",
    "version": "0.8.15+commit.e14f2714.Emscripten.clang"
  },
  "schemaVersion": "3.4.7",
  "updatedAt": "2022-06-17T05:17:45.524Z",
  "networkType": "ethereum",
  "devdoc": {
    "kind": "dev",
    "methods": {},
    "version": 1
  },
  "userdoc": {
    "kind": "user",
    "methods": {},
    "version": 1
  }
}