{
  "contractName": "DeBank",
  "abi": [
    {
      "inputs": [
        {
          "internalType": "contract Rewards",
          "name": "_rewards",
          "type": "address"
        },
        {
          "internalType": "contract Tether",
          "name": "_tether",
          "type": "address"
        }
      ],
      "stateMutability": "nonpayable",
      "type": "constructor"
    },
    {
      "inputs": [
        {
          "internalType": "uint256",
          "name": "",
          "type": "uint256"
        }
      ],
      "name": "allStakers",
      "outputs": [
        {
          "internalType": "address",
          "name": "",
          "type": "address"
        }
      ],
      "stateMutability": "view",
      "type": "function",
      "constant": true
    },
    {
      "inputs": [
        {
          "internalType": "address",
          "name": "",
          "type": "address"
        }
      ],
      "name": "hasStaked",
      "outputs": [
        {
          "internalType": "bool",
          "name": "",
          "type": "bool"
        }
      ],
      "stateMutability": "view",
      "type": "function",
      "constant": true
    },
    {
      "inputs": [
        {
          "internalType": "address",
          "name": "",
          "type": "address"
        }
      ],
      "name": "isStaked",
      "outputs": [
        {
          "internalType": "bool",
          "name": "",
          "type": "bool"
        }
      ],
      "stateMutability": "view",
      "type": "function",
      "constant": true
    },
    {
      "inputs": [],
      "name": "name",
      "outputs": [
        {
          "internalType": "string",
          "name": "",
          "type": "string"
        }
      ],
      "stateMutability": "view",
      "type": "function",
      "constant": true
    },
    {
      "inputs": [],
      "name": "owner",
      "outputs": [
        {
          "internalType": "address",
          "name": "",
          "type": "address"
        }
      ],
      "stateMutability": "view",
      "type": "function",
      "constant": true
    },
    {
      "inputs": [],
      "name": "rewards",
      "outputs": [
        {
          "internalType": "contract Rewards",
          "name": "",
          "type": "address"
        }
      ],
      "stateMutability": "view",
      "type": "function",
      "constant": true
    },
    {
      "inputs": [
        {
          "internalType": "address",
          "name": "",
          "type": "address"
        }
      ],
      "name": "stakingBalances",
      "outputs": [
        {
          "internalType": "uint256",
          "name": "",
          "type": "uint256"
        }
      ],
      "stateMutability": "view",
      "type": "function",
      "constant": true
    },
    {
      "inputs": [],
      "name": "tether",
      "outputs": [
        {
          "internalType": "contract Tether",
          "name": "",
          "type": "address"
        }
      ],
      "stateMutability": "view",
      "type": "function",
      "constant": true
    },
    {
      "inputs": [
        {
          "internalType": "uint256",
          "name": "_amount",
          "type": "uint256"
        }
      ],
      "name": "depositToken",
      "outputs": [],
      "stateMutability": "nonpayable",
      "type": "function"
    }
  ],
  "bytecode": "0x60806040526040518060400160405280600681526020017f446542616e6b0000000000000000000000000000000000000000000000000000815250600290816200004a9190620003c3565b503480156200005857600080fd5b50604051620011283803806200112883398181016040528101906200007e91906200056d565b81600360006101000a81548173ffffffffffffffffffffffffffffffffffffffff021916908373ffffffffffffffffffffffffffffffffffffffff16021790555080600460006101000a81548173ffffffffffffffffffffffffffffffffffffffff021916908373ffffffffffffffffffffffffffffffffffffffff16021790555033600160006101000a81548173ffffffffffffffffffffffffffffffffffffffff021916908373ffffffffffffffffffffffffffffffffffffffff1602179055505050620005b4565b600081519050919050565b7f4e487b7100000000000000000000000000000000000000000000000000000000600052604160045260246000fd5b7f4e487b7100000000000000000000000000000000000000000000000000000000600052602260045260246000fd5b60006002820490506001821680620001cb57607f821691505b602082108103620001e157620001e062000183565b5b50919050565b60008190508160005260206000209050919050565b60006020601f8301049050919050565b600082821b905092915050565b6000600883026200024b7fffffffffffffffffffffffffffffffffffffffffffffffffffffffffffffffff826200020c565b6200025786836200020c565b95508019841693508086168417925050509392505050565b6000819050919050565b6000819050919050565b6000620002a46200029e62000298846200026f565b62000279565b6200026f565b9050919050565b6000819050919050565b620002c08362000283565b620002d8620002cf82620002ab565b84845462000219565b825550505050565b600090565b620002ef620002e0565b620002fc818484620002b5565b505050565b5b81811015620003245762000318600082620002e5565b60018101905062000302565b5050565b601f82111562000373576200033d81620001e7565b6200034884620001fc565b8101602085101562000358578190505b620003706200036785620001fc565b83018262000301565b50505b505050565b600082821c905092915050565b6000620003986000198460080262000378565b1980831691505092915050565b6000620003b3838362000385565b9150826002028217905092915050565b620003ce8262000149565b67ffffffffffffffff811115620003ea57620003e962000154565b5b620003f68254620001b2565b6200040382828562000328565b600060209050601f8311600181146200043b576000841562000426578287015190505b620004328582620003a5565b865550620004a2565b601f1984166200044b86620001e7565b60005b8281101562000475578489015182556001820191506020850194506020810190506200044e565b8683101562000495578489015162000491601f89168262000385565b8355505b6001600288020188555050505b505050505050565b600080fd5b600073ffffffffffffffffffffffffffffffffffffffff82169050919050565b6000620004dc82620004af565b9050919050565b6000620004f082620004cf565b9050919050565b6200050281620004e3565b81146200050e57600080fd5b50565b6000815190506200052281620004f7565b92915050565b60006200053582620004cf565b9050919050565b620005478162000528565b81146200055357600080fd5b50565b60008151905062000567816200053c565b92915050565b60008060408385031215620005875762000586620004aa565b5b6000620005978582860162000511565b9250506020620005aa8582860162000556565b9150509250929050565b610b6480620005c46000396000f3fe608060405234801561001057600080fd5b50600436106100935760003560e01c80636215be77116100665780636215be77146101345780638da5cb5b146101505780639ec5a8941461016e578063c3214d6c1461018c578063c93c8f34146101bc57610093565b806306fdde03146100985780635efc071a146100b65780636177fd18146100d457806361b8b5dc14610104575b600080fd5b6100a06101ec565b6040516100ad91906106f8565b60405180910390f35b6100be61027a565b6040516100cb9190610799565b60405180910390f35b6100ee60048036038101906100e991906107f7565b6102a0565b6040516100fb919061083f565b60405180910390f35b61011e600480360381019061011991906107f7565b6102c0565b60405161012b9190610873565b60405180910390f35b61014e600480360381019061014991906108ba565b6102d8565b005b6101586105b4565b60405161016591906108f6565b60405180910390f35b6101766105da565b6040516101839190610932565b60405180910390f35b6101a660048036038101906101a191906108ba565b610600565b6040516101b391906108f6565b60405180910390f35b6101d660048036038101906101d191906107f7565b61063f565b6040516101e3919061083f565b60405180910390f35b600280546101f99061097c565b80601f01602080910402602001604051908101604052809291908181526020018280546102259061097c565b80156102725780601f1061024757610100808354040283529160200191610272565b820191906000526020600020905b81548152906001019060200180831161025557829003601f168201915b505050505081565b600460009054906101000a900473ffffffffffffffffffffffffffffffffffffffff1681565b60076020528060005260406000206000915054906101000a900460ff1681565b60056020528060005260406000206000915090505481565b6000811161031b576040517f08c379a0000000000000000000000000000000000000000000000000000000008152600401610312906109f9565b60405180910390fd5b600460009054906101000a900473ffffffffffffffffffffffffffffffffffffffff1673ffffffffffffffffffffffffffffffffffffffff166323b872dd3330846040518463ffffffff1660e01b815260040161037a93929190610a19565b6020604051808303816000875af1158015610399573d6000803e3d6000fd5b505050506040513d601f19601f820116820180604052508101906103bd9190610a7c565b5080600560003373ffffffffffffffffffffffffffffffffffffffff1673ffffffffffffffffffffffffffffffffffffffff168152602001908152602001600020546104099190610ad8565b600560003373ffffffffffffffffffffffffffffffffffffffff1673ffffffffffffffffffffffffffffffffffffffff16815260200190815260200160002081905550600660003373ffffffffffffffffffffffffffffffffffffffff1673ffffffffffffffffffffffffffffffffffffffff16815260200190815260200160002060009054906101000a900460ff16610501576000339080600181540180825580915050600190039060005260206000200160009091909190916101000a81548173ffffffffffffffffffffffffffffffffffffffff021916908373ffffffffffffffffffffffffffffffffffffffff1602179055505b6001600660003373ffffffffffffffffffffffffffffffffffffffff1673ffffffffffffffffffffffffffffffffffffffff16815260200190815260200160002060006101000a81548160ff0219169083151502179055506001600760003373ffffffffffffffffffffffffffffffffffffffff1673ffffffffffffffffffffffffffffffffffffffff16815260200190815260200160002060006101000a81548160ff02191690831515021790555050565b600160009054906101000a900473ffffffffffffffffffffffffffffffffffffffff1681565b600360009054906101000a900473ffffffffffffffffffffffffffffffffffffffff1681565b6000818154811061061057600080fd5b906000526020600020016000915054906101000a900473ffffffffffffffffffffffffffffffffffffffff1681565b60066020528060005260406000206000915054906101000a900460ff1681565b600081519050919050565b600082825260208201905092915050565b60005b8381101561069957808201518184015260208101905061067e565b838111156106a8576000848401525b50505050565b6000601f19601f8301169050919050565b60006106ca8261065f565b6106d4818561066a565b93506106e481856020860161067b565b6106ed816106ae565b840191505092915050565b6000602082019050818103600083015261071281846106bf565b905092915050565b600073ffffffffffffffffffffffffffffffffffffffff82169050919050565b6000819050919050565b600061075f61075a6107558461071a565b61073a565b61071a565b9050919050565b600061077182610744565b9050919050565b600061078382610766565b9050919050565b61079381610778565b82525050565b60006020820190506107ae600083018461078a565b92915050565b600080fd5b60006107c48261071a565b9050919050565b6107d4816107b9565b81146107df57600080fd5b50565b6000813590506107f1816107cb565b92915050565b60006020828403121561080d5761080c6107b4565b5b600061081b848285016107e2565b91505092915050565b60008115159050919050565b61083981610824565b82525050565b60006020820190506108546000830184610830565b92915050565b6000819050919050565b61086d8161085a565b82525050565b60006020820190506108886000830184610864565b92915050565b6108978161085a565b81146108a257600080fd5b50565b6000813590506108b48161088e565b92915050565b6000602082840312156108d0576108cf6107b4565b5b60006108de848285016108a5565b91505092915050565b6108f0816107b9565b82525050565b600060208201905061090b60008301846108e7565b92915050565b600061091c82610766565b9050919050565b61092c81610911565b82525050565b60006020820190506109476000830184610923565b92915050565b7f4e487b7100000000000000000000000000000000000000000000000000000000600052602260045260246000fd5b6000600282049050600182168061099457607f821691505b6020821081036109a7576109a661094d565b5b50919050565b7f416d6f756e742073686f756c6420626520677265617465720000000000000000600082015250565b60006109e360188361066a565b91506109ee826109ad565b602082019050919050565b60006020820190508181036000830152610a12816109d6565b9050919050565b6000606082019050610a2e60008301866108e7565b610a3b60208301856108e7565b610a486040830184610864565b949350505050565b610a5981610824565b8114610a6457600080fd5b50565b600081519050610a7681610a50565b92915050565b600060208284031215610a9257610a916107b4565b5b6000610aa084828501610a67565b91505092915050565b7f4e487b7100000000000000000000000000000000000000000000000000000000600052601160045260246000fd5b6000610ae38261085a565b9150610aee8361085a565b9250827fffffffffffffffffffffffffffffffffffffffffffffffffffffffffffffffff03821115610b2357610b22610aa9565b5b82820190509291505056fea2646970667358221220239b95febf7ef889fc13a153ec38b3c9b491fcb18e31c0c7270e5f38ab0eddd464736f6c634300080f0033",
  "immutableReferences": {},
  "source": "// SPDX-License-Identifier: MIT\r\n\r\npragma solidity ^0.5.0;\r\nimport \"./Rewards.sol\";\r\nimport \"./Tether.sol\";\r\n\r\ncontract DeBank {\r\n    address[] public allStakers;\r\n    address public owner;\r\n    string public name = \"DeBank\";\r\n    Rewards public rewards;\r\n    Tether public tether;\r\n\r\n    constructor(Rewards _rewards, Tether _tether) {\r\n        rewards = _rewards;\r\n        tether = _tether;\r\n        owner = msg.sender;\r\n    }\r\n\r\n    mapping(address => uint) public stakingBalances;\r\n    mapping(address => bool) public hasStaked;\r\n    mapping(address => bool) public isStaked;\r\n\r\n    // Staking (Deposit tokens)\r\n\r\n    function depositToken(uint _amount) public {\r\n        require(_amount > 0, \"Amount should be greater\");\r\n\r\n        // Transfer the tokens to DeBank for staking.\r\n        tether.transferFrom(msg.sender, address(this), _amount);\r\n\r\n        // Update staking balance\r\n        stakingBalances[msg.sender] = stakingBalances[msg.sender] +  _amount;\r\n\r\n        if(!hasStaked[msg.sender]){\r\n            allStakers.push(msg.sender);\r\n        }\r\n\r\n        // Update the staking.\r\n        hasStaked[msg.sender] = true;\r\n        isStaked[msg.sender] = true;\r\n\r\n    }\r\n}\r\n",
  "sourcePath": "C:\\blockchain projects\\Defi-staking-app\\src\\contracts\\DeBank.sol",
  "compiler": {
    "name": "solc",
    "version": "0.8.15+commit.e14f2714.Emscripten.clang"
  },
  "schemaVersion": "3.4.7",
  "updatedAt": "2022-06-19T12:49:44.275Z",
  "networkType": "ethereum",
  "devdoc": {
    "kind": "dev",
    "methods": {},
    "version": 1
  },
  "userdoc": {
    "kind": "user",
    "methods": {},
    "version": 1
  }
}