{
  "contractName": "Rewards",
  "abi": [
    {
      "inputs": [],
      "stateMutability": "nonpayable",
      "type": "constructor"
    },
    {
      "anonymous": false,
      "inputs": [
        {
          "indexed": true,
          "internalType": "address",
          "name": "_owner",
          "type": "address"
        },
        {
          "indexed": true,
          "internalType": "address",
          "name": "_spender",
          "type": "address"
        },
        {
          "indexed": false,
          "internalType": "uint256",
          "name": "_value",
          "type": "uint256"
        }
      ],
      "name": "Approval",
      "type": "event"
    },
    {
      "anonymous": false,
      "inputs": [
        {
          "indexed": true,
          "internalType": "address",
          "name": "_from",
          "type": "address"
        },
        {
          "indexed": true,
          "internalType": "address",
          "name": "_to",
          "type": "address"
        },
        {
          "indexed": false,
          "internalType": "uint256",
          "name": "_value",
          "type": "uint256"
        }
      ],
      "name": "Transfer",
      "type": "event"
    },
    {
      "inputs": [
        {
          "internalType": "address",
          "name": "",
          "type": "address"
        },
        {
          "internalType": "address",
          "name": "",
          "type": "address"
        }
      ],
      "name": "allowances",
      "outputs": [
        {
          "internalType": "uint256",
          "name": "",
          "type": "uint256"
        }
      ],
      "stateMutability": "view",
      "type": "function"
    },
    {
      "inputs": [
        {
          "internalType": "address",
          "name": "",
          "type": "address"
        }
      ],
      "name": "balances",
      "outputs": [
        {
          "internalType": "uint256",
          "name": "",
          "type": "uint256"
        }
      ],
      "stateMutability": "view",
      "type": "function"
    },
    {
      "inputs": [],
      "name": "name",
      "outputs": [
        {
          "internalType": "string",
          "name": "",
          "type": "string"
        }
      ],
      "stateMutability": "view",
      "type": "function"
    },
    {
      "inputs": [],
      "name": "symbol",
      "outputs": [
        {
          "internalType": "string",
          "name": "",
          "type": "string"
        }
      ],
      "stateMutability": "view",
      "type": "function"
    },
    {
      "inputs": [],
      "name": "totalSupply",
      "outputs": [
        {
          "internalType": "uint256",
          "name": "",
          "type": "uint256"
        }
      ],
      "stateMutability": "view",
      "type": "function"
    },
    {
      "inputs": [
        {
          "internalType": "address",
          "name": "_to",
          "type": "address"
        },
        {
          "internalType": "uint256",
          "name": "_value",
          "type": "uint256"
        }
      ],
      "name": "transfer",
      "outputs": [
        {
          "internalType": "bool",
          "name": "success",
          "type": "bool"
        }
      ],
      "stateMutability": "nonpayable",
      "type": "function"
    },
    {
      "inputs": [
        {
          "internalType": "address",
          "name": "_from",
          "type": "address"
        },
        {
          "internalType": "address",
          "name": "_to",
          "type": "address"
        },
        {
          "internalType": "uint256",
          "name": "_value",
          "type": "uint256"
        }
      ],
      "name": "transferFrom",
      "outputs": [
        {
          "internalType": "bool",
          "name": "success",
          "type": "bool"
        }
      ],
      "stateMutability": "nonpayable",
      "type": "function"
    },
    {
      "inputs": [
        {
          "internalType": "address",
          "name": "_spender",
          "type": "address"
        },
        {
          "internalType": "uint256",
          "name": "_value",
          "type": "uint256"
        }
      ],
      "name": "approve",
      "outputs": [
        {
          "internalType": "bool",
          "name": "success",
          "type": "bool"
        }
      ],
      "stateMutability": "nonpayable",
      "type": "function"
    }
  ],
  "bytecode": "0x60806040526040518060400160405280600781526020017f5265776172647300000000000000000000000000000000000000000000000000815250600090816200004a919062000379565b506040518060400160405280600381526020017f52455700000000000000000000000000000000000000000000000000000000008152506001908162000091919062000379565b5069d3c21bcecceda10000006002556012600355348015620000b257600080fd5b50600254600460003373ffffffffffffffffffffffffffffffffffffffff1673ffffffffffffffffffffffffffffffffffffffff1681526020019081526020016000208190555062000460565b600081519050919050565b7f4e487b7100000000000000000000000000000000000000000000000000000000600052604160045260246000fd5b7f4e487b7100000000000000000000000000000000000000000000000000000000600052602260045260246000fd5b600060028204905060018216806200018157607f821691505b60208210810362000197576200019662000139565b5b50919050565b60008190508160005260206000209050919050565b60006020601f8301049050919050565b600082821b905092915050565b600060088302620002017fffffffffffffffffffffffffffffffffffffffffffffffffffffffffffffffff82620001c2565b6200020d8683620001c2565b95508019841693508086168417925050509392505050565b6000819050919050565b6000819050919050565b60006200025a620002546200024e8462000225565b6200022f565b62000225565b9050919050565b6000819050919050565b620002768362000239565b6200028e620002858262000261565b848454620001cf565b825550505050565b600090565b620002a562000296565b620002b28184846200026b565b505050565b5b81811015620002da57620002ce6000826200029b565b600181019050620002b8565b5050565b601f8211156200032957620002f3816200019d565b620002fe84620001b2565b810160208510156200030e578190505b620003266200031d85620001b2565b830182620002b7565b50505b505050565b600082821c905092915050565b60006200034e600019846008026200032e565b1980831691505092915050565b60006200036983836200033b565b9150826002028217905092915050565b6200038482620000ff565b67ffffffffffffffff811115620003a0576200039f6200010a565b5b620003ac825462000168565b620003b9828285620002de565b600060209050601f831160018114620003f15760008415620003dc578287015190505b620003e885826200035b565b86555062000458565b601f19841662000401866200019d565b60005b828110156200042b5784890151825560018201915060208501945060208101905062000404565b868310156200044b578489015162000447601f8916826200033b565b8355505b6001600288020188555050505b505050505050565b610c6980620004706000396000f3fe608060405234801561001057600080fd5b50600436106100885760003560e01c806327e235e31161005b57806327e235e31461012957806355b6ed5c1461015957806395d89b4114610189578063a9059cbb146101a757610088565b806306fdde031461008d578063095ea7b3146100ab57806318160ddd146100db57806323b872dd146100f9575b600080fd5b6100956101d7565b6040516100a29190610893565b60405180910390f35b6100c560048036038101906100c0919061094e565b610265565b6040516100d291906109a9565b60405180910390f35b6100e3610357565b6040516100f091906109d3565b60405180910390f35b610113600480360381019061010e91906109ee565b61035d565b60405161012091906109a9565b60405180910390f35b610143600480360381019061013e9190610a41565b610590565b60405161015091906109d3565b60405180910390f35b610173600480360381019061016e9190610a6e565b6105a8565b60405161018091906109d3565b60405180910390f35b6101916105cd565b60405161019e9190610893565b60405180910390f35b6101c160048036038101906101bc919061094e565b61065b565b6040516101ce91906109a9565b60405180910390f35b600080546101e490610add565b80601f016020809104026020016040519081016040528092919081815260200182805461021090610add565b801561025d5780601f106102325761010080835404028352916020019161025d565b820191906000526020600020905b81548152906001019060200180831161024057829003601f168201915b505050505081565b600081600560003373ffffffffffffffffffffffffffffffffffffffff1673ffffffffffffffffffffffffffffffffffffffff16815260200190815260200160002060008573ffffffffffffffffffffffffffffffffffffffff1673ffffffffffffffffffffffffffffffffffffffff168152602001908152602001600020819055508273ffffffffffffffffffffffffffffffffffffffff163373ffffffffffffffffffffffffffffffffffffffff167f8c5be1e5ebec7d5bd14f71427d1e84f3dd0314c0f7b2291e5b200ac8c7c3b9258460405161034591906109d3565b60405180910390a36001905092915050565b60025481565b600081600460008673ffffffffffffffffffffffffffffffffffffffff1673ffffffffffffffffffffffffffffffffffffffff1681526020019081526020016000205410156103e1576040517f08c379a00000000000000000000000000000000000000000000000000000000081526004016103d890610b5a565b60405180910390fd5b81600460008673ffffffffffffffffffffffffffffffffffffffff1673ffffffffffffffffffffffffffffffffffffffff16815260200190815260200160002060008282546104309190610ba9565b9250508190555081600460008573ffffffffffffffffffffffffffffffffffffffff1673ffffffffffffffffffffffffffffffffffffffff16815260200190815260200160002060008282546104869190610bdd565b9250508190555081600560003373ffffffffffffffffffffffffffffffffffffffff1673ffffffffffffffffffffffffffffffffffffffff16815260200190815260200160002060008673ffffffffffffffffffffffffffffffffffffffff1673ffffffffffffffffffffffffffffffffffffffff16815260200190815260200160002060008282546105199190610ba9565b925050819055508273ffffffffffffffffffffffffffffffffffffffff168473ffffffffffffffffffffffffffffffffffffffff167fddf252ad1be2c89b69c2b068fc378daa952ba7f163c4a11628f55a4df523b3ef8460405161057d91906109d3565b60405180910390a3600190509392505050565b60046020528060005260406000206000915090505481565b6005602052816000526040600020602052806000526040600020600091509150505481565b600180546105da90610add565b80601f016020809104026020016040519081016040528092919081815260200182805461060690610add565b80156106535780601f1061062857610100808354040283529160200191610653565b820191906000526020600020905b81548152906001019060200180831161063657829003601f168201915b505050505081565b600081600460003373ffffffffffffffffffffffffffffffffffffffff1673ffffffffffffffffffffffffffffffffffffffff1681526020019081526020016000205410156106df576040517f08c379a00000000000000000000000000000000000000000000000000000000081526004016106d690610b5a565b60405180910390fd5b81600460003373ffffffffffffffffffffffffffffffffffffffff1673ffffffffffffffffffffffffffffffffffffffff168152602001908152602001600020600082825461072e9190610ba9565b9250508190555081600460008573ffffffffffffffffffffffffffffffffffffffff1673ffffffffffffffffffffffffffffffffffffffff16815260200190815260200160002060008282546107849190610bdd565b925050819055508273ffffffffffffffffffffffffffffffffffffffff163373ffffffffffffffffffffffffffffffffffffffff167fddf252ad1be2c89b69c2b068fc378daa952ba7f163c4a11628f55a4df523b3ef846040516107e891906109d3565b60405180910390a36001905092915050565b600081519050919050565b600082825260208201905092915050565b60005b83811015610834578082015181840152602081019050610819565b83811115610843576000848401525b50505050565b6000601f19601f8301169050919050565b6000610865826107fa565b61086f8185610805565b935061087f818560208601610816565b61088881610849565b840191505092915050565b600060208201905081810360008301526108ad818461085a565b905092915050565b600080fd5b600073ffffffffffffffffffffffffffffffffffffffff82169050919050565b60006108e5826108ba565b9050919050565b6108f5816108da565b811461090057600080fd5b50565b600081359050610912816108ec565b92915050565b6000819050919050565b61092b81610918565b811461093657600080fd5b50565b60008135905061094881610922565b92915050565b60008060408385031215610965576109646108b5565b5b600061097385828601610903565b925050602061098485828601610939565b9150509250929050565b60008115159050919050565b6109a38161098e565b82525050565b60006020820190506109be600083018461099a565b92915050565b6109cd81610918565b82525050565b60006020820190506109e860008301846109c4565b92915050565b600080600060608486031215610a0757610a066108b5565b5b6000610a1586828701610903565b9350506020610a2686828701610903565b9250506040610a3786828701610939565b9150509250925092565b600060208284031215610a5757610a566108b5565b5b6000610a6584828501610903565b91505092915050565b60008060408385031215610a8557610a846108b5565b5b6000610a9385828601610903565b9250506020610aa485828601610903565b9150509250929050565b7f4e487b7100000000000000000000000000000000000000000000000000000000600052602260045260246000fd5b60006002820490506001821680610af557607f821691505b602082108103610b0857610b07610aae565b5b50919050565b7f496e73756666696369656e742066756e64730000000000000000000000000000600082015250565b6000610b44601283610805565b9150610b4f82610b0e565b602082019050919050565b60006020820190508181036000830152610b7381610b37565b9050919050565b7f4e487b7100000000000000000000000000000000000000000000000000000000600052601160045260246000fd5b6000610bb482610918565b9150610bbf83610918565b925082821015610bd257610bd1610b7a565b5b828203905092915050565b6000610be882610918565b9150610bf383610918565b9250827fffffffffffffffffffffffffffffffffffffffffffffffffffffffffffffffff03821115610c2857610c27610b7a565b5b82820190509291505056fea2646970667358221220c4ad0f70c50c09667e4163c73d3d022b834168b0804fbb930896c306c518f02364736f6c634300080f0033",
  "immutableReferences": {},
  "source": "// SPDX-License-Identifier: MIT\r\npragma solidity ^0.8.6;\r\n\r\ncontract Rewards {\r\n    string public name = \"Rewards\";\r\n    string public symbol = \"REW\";\r\n    uint256 public totalSupply = 1000000000000000000000000; // 1 millions tokens\r\n    uint256 decimals = 18;\r\n\r\n    event Transfer(address indexed _from, address indexed _to, uint256 _value);\r\n\r\n    event Approval(\r\n        address indexed _owner,\r\n        address indexed _spender,\r\n        uint256 _value\r\n    );\r\n\r\n    mapping(address => uint256) public balances;\r\n    mapping(address => mapping(address => uint256)) public allowances;\r\n\r\n    constructor() {\r\n        balances[msg.sender] = totalSupply;\r\n    }\r\n\r\n    // functions\r\n\r\n    function transfer(address _to, uint256 _value)\r\n        public\r\n        returns (bool success)\r\n    {\r\n        require(balances[msg.sender] >= _value, \"Insufficient funds\");\r\n\r\n        balances[msg.sender] -= _value;\r\n        balances[_to] += _value;\r\n        emit Transfer(msg.sender, _to, _value);\r\n        return true;\r\n    }\r\n\r\n    // Function Transfer balance (Third party)\r\n\r\n    function transferFrom(\r\n        address _from,\r\n        address _to,\r\n        uint256 _value\r\n    ) public returns (bool success) {\r\n        require(balances[_from] >= _value, \"Insufficient funds\");\r\n\r\n        balances[_from] -= _value;\r\n        balances[_to] += _value;\r\n        allowances[msg.sender][_from] -= _value;\r\n        emit Transfer(_from, _to, _value);\r\n        return true;\r\n    }\r\n\r\n    // Approve the transation\r\n    function approve(address _spender, uint256 _value)\r\n        public\r\n        returns (bool success)\r\n    {\r\n        allowances[msg.sender][_spender] = _value;\r\n        emit Approval(msg.sender, _spender, _value);\r\n        return true;\r\n    }\r\n}\r\n",
  "sourcePath": "C:\\blockchain projects\\Defi-staking-app\\src\\contracts\\Rewards.sol",
  "compiler": {
    "name": "solc",
    "version": "0.8.15+commit.e14f2714.Emscripten.clang"
  },
  "schemaVersion": "3.4.7",
  "updatedAt": "2022-06-17T15:22:00.217Z",
  "devdoc": {
    "kind": "dev",
    "methods": {},
    "version": 1
  },
  "userdoc": {
    "kind": "user",
    "methods": {},
    "version": 1
  }
}