{
  "contractName": "Tether",
  "abi": [
    {
      "inputs": [],
      "stateMutability": "nonpayable",
      "type": "constructor"
    },
    {
      "anonymous": false,
      "inputs": [
        {
          "indexed": true,
          "internalType": "address",
          "name": "_owner",
          "type": "address"
        },
        {
          "indexed": true,
          "internalType": "address",
          "name": "_spender",
          "type": "address"
        },
        {
          "indexed": false,
          "internalType": "uint256",
          "name": "_value",
          "type": "uint256"
        }
      ],
      "name": "Approval",
      "type": "event"
    },
    {
      "anonymous": false,
      "inputs": [
        {
          "indexed": true,
          "internalType": "address",
          "name": "_from",
          "type": "address"
        },
        {
          "indexed": true,
          "internalType": "address",
          "name": "_to",
          "type": "address"
        },
        {
          "indexed": false,
          "internalType": "uint256",
          "name": "_value",
          "type": "uint256"
        }
      ],
      "name": "Transfer",
      "type": "event"
    },
    {
      "inputs": [
        {
          "internalType": "address",
          "name": "",
          "type": "address"
        },
        {
          "internalType": "address",
          "name": "",
          "type": "address"
        }
      ],
      "name": "allowances",
      "outputs": [
        {
          "internalType": "uint256",
          "name": "",
          "type": "uint256"
        }
      ],
      "stateMutability": "view",
      "type": "function",
      "constant": true
    },
    {
      "inputs": [
        {
          "internalType": "address",
          "name": "",
          "type": "address"
        }
      ],
      "name": "balanceOf",
      "outputs": [
        {
          "internalType": "uint256",
          "name": "",
          "type": "uint256"
        }
      ],
      "stateMutability": "view",
      "type": "function",
      "constant": true
    },
    {
      "inputs": [],
      "name": "decimals",
      "outputs": [
        {
          "internalType": "uint8",
          "name": "",
          "type": "uint8"
        }
      ],
      "stateMutability": "view",
      "type": "function",
      "constant": true
    },
    {
      "inputs": [],
      "name": "name",
      "outputs": [
        {
          "internalType": "string",
          "name": "",
          "type": "string"
        }
      ],
      "stateMutability": "view",
      "type": "function",
      "constant": true
    },
    {
      "inputs": [],
      "name": "symbol",
      "outputs": [
        {
          "internalType": "string",
          "name": "",
          "type": "string"
        }
      ],
      "stateMutability": "view",
      "type": "function",
      "constant": true
    },
    {
      "inputs": [],
      "name": "totalSupply",
      "outputs": [
        {
          "internalType": "uint256",
          "name": "",
          "type": "uint256"
        }
      ],
      "stateMutability": "view",
      "type": "function",
      "constant": true
    },
    {
      "inputs": [
        {
          "internalType": "address",
          "name": "_to",
          "type": "address"
        },
        {
          "internalType": "uint256",
          "name": "_value",
          "type": "uint256"
        }
      ],
      "name": "transfer",
      "outputs": [
        {
          "internalType": "bool",
          "name": "success",
          "type": "bool"
        }
      ],
      "stateMutability": "nonpayable",
      "type": "function"
    },
    {
      "inputs": [
        {
          "internalType": "address",
          "name": "_from",
          "type": "address"
        },
        {
          "internalType": "address",
          "name": "_to",
          "type": "address"
        },
        {
          "internalType": "uint256",
          "name": "_value",
          "type": "uint256"
        }
      ],
      "name": "tranferFrom",
      "outputs": [
        {
          "internalType": "bool",
          "name": "success",
          "type": "bool"
        }
      ],
      "stateMutability": "nonpayable",
      "type": "function"
    },
    {
      "inputs": [
        {
          "internalType": "address",
          "name": "_spender",
          "type": "address"
        },
        {
          "internalType": "uint256",
          "name": "_value",
          "type": "uint256"
        }
      ],
      "name": "approve",
      "outputs": [
        {
          "internalType": "bool",
          "name": "success",
          "type": "bool"
        }
      ],
      "stateMutability": "nonpayable",
      "type": "function"
    }
  ],
  "bytecode": "0x60806040526040518060400160405280600681526020017f5465746865720000000000000000000000000000000000000000000000000000815250600090816200004a919062000390565b506040518060400160405280600481526020017f55534454000000000000000000000000000000000000000000000000000000008152506001908162000091919062000390565b5069d3c21bcecceda10000006002556012600360006101000a81548160ff021916908360ff160217905550348015620000c957600080fd5b50600254600460003373ffffffffffffffffffffffffffffffffffffffff1673ffffffffffffffffffffffffffffffffffffffff1681526020019081526020016000208190555062000477565b600081519050919050565b7f4e487b7100000000000000000000000000000000000000000000000000000000600052604160045260246000fd5b7f4e487b7100000000000000000000000000000000000000000000000000000000600052602260045260246000fd5b600060028204905060018216806200019857607f821691505b602082108103620001ae57620001ad62000150565b5b50919050565b60008190508160005260206000209050919050565b60006020601f8301049050919050565b600082821b905092915050565b600060088302620002187fffffffffffffffffffffffffffffffffffffffffffffffffffffffffffffffff82620001d9565b620002248683620001d9565b95508019841693508086168417925050509392505050565b6000819050919050565b6000819050919050565b6000620002716200026b62000265846200023c565b62000246565b6200023c565b9050919050565b6000819050919050565b6200028d8362000250565b620002a56200029c8262000278565b848454620001e6565b825550505050565b600090565b620002bc620002ad565b620002c981848462000282565b505050565b5b81811015620002f157620002e5600082620002b2565b600181019050620002cf565b5050565b601f82111562000340576200030a81620001b4565b6200031584620001c9565b8101602085101562000325578190505b6200033d6200033485620001c9565b830182620002ce565b50505b505050565b600082821c905092915050565b6000620003656000198460080262000345565b1980831691505092915050565b600062000380838362000352565b9150826002028217905092915050565b6200039b8262000116565b67ffffffffffffffff811115620003b757620003b662000121565b5b620003c382546200017f565b620003d0828285620002f5565b600060209050601f831160018114620004085760008415620003f3578287015190505b620003ff858262000372565b8655506200046f565b601f1984166200041886620001b4565b60005b8281101562000442578489015182556001820191506020850194506020810190506200041b565b868310156200046257848901516200045e601f89168262000352565b8355505b6001600288020188555050505b505050505050565b610e0780620004876000396000f3fe608060405234801561001057600080fd5b50600436106100935760003560e01c806355b6ed5c1161006657806355b6ed5c1461012257806370a08231146101525780639264a1691461018257806395d89b41146101b2578063a9059cbb146101d057610093565b806306fdde0314610098578063095ea7b3146100b657806318160ddd146100e6578063313ce56714610104575b600080fd5b6100a0610200565b6040516100ad919061098e565b60405180910390f35b6100d060048036038101906100cb9190610a49565b61028e565b6040516100dd9190610aa4565b60405180910390f35b6100ee610380565b6040516100fb9190610ace565b60405180910390f35b61010c610386565b6040516101199190610b05565b60405180910390f35b61013c60048036038101906101379190610b20565b610399565b6040516101499190610ace565b60405180910390f35b61016c60048036038101906101679190610b60565b6103be565b6040516101799190610ace565b60405180910390f35b61019c60048036038101906101979190610b8d565b6103d6565b6040516101a99190610aa4565b60405180910390f35b6101ba6106c8565b6040516101c7919061098e565b60405180910390f35b6101ea60048036038101906101e59190610a49565b610756565b6040516101f79190610aa4565b60405180910390f35b6000805461020d90610c0f565b80601f016020809104026020016040519081016040528092919081815260200182805461023990610c0f565b80156102865780601f1061025b57610100808354040283529160200191610286565b820191906000526020600020905b81548152906001019060200180831161026957829003601f168201915b505050505081565b600081600560003373ffffffffffffffffffffffffffffffffffffffff1673ffffffffffffffffffffffffffffffffffffffff16815260200190815260200160002060008573ffffffffffffffffffffffffffffffffffffffff1673ffffffffffffffffffffffffffffffffffffffff168152602001908152602001600020819055508273ffffffffffffffffffffffffffffffffffffffff163373ffffffffffffffffffffffffffffffffffffffff167f8c5be1e5ebec7d5bd14f71427d1e84f3dd0314c0f7b2291e5b200ac8c7c3b9258460405161036e9190610ace565b60405180910390a36001905092915050565b60025481565b600360009054906101000a900460ff1681565b6005602052816000526040600020602052806000526040600020600091509150505481565b60046020528060005260406000206000915090505481565b600081600460008673ffffffffffffffffffffffffffffffffffffffff1673ffffffffffffffffffffffffffffffffffffffff16815260200190815260200160002054101561045a576040517f08c379a000000000000000000000000000000000000000000000000000000000815260040161045190610c8c565b60405180910390fd5b81600560008673ffffffffffffffffffffffffffffffffffffffff1673ffffffffffffffffffffffffffffffffffffffff16815260200190815260200160002060003373ffffffffffffffffffffffffffffffffffffffff1673ffffffffffffffffffffffffffffffffffffffff168152602001908152602001600020541015610519576040517f08c379a000000000000000000000000000000000000000000000000000000000815260040161051090610c8c565b60405180910390fd5b81600460008573ffffffffffffffffffffffffffffffffffffffff1673ffffffffffffffffffffffffffffffffffffffff16815260200190815260200160002060008282546105689190610cdb565b9250508190555081600460008673ffffffffffffffffffffffffffffffffffffffff1673ffffffffffffffffffffffffffffffffffffffff16815260200190815260200160002060008282546105be9190610d31565b9250508190555081600560003373ffffffffffffffffffffffffffffffffffffffff1673ffffffffffffffffffffffffffffffffffffffff16815260200190815260200160002060008673ffffffffffffffffffffffffffffffffffffffff1673ffffffffffffffffffffffffffffffffffffffff16815260200190815260200160002060008282546106519190610d31565b925050819055508273ffffffffffffffffffffffffffffffffffffffff168473ffffffffffffffffffffffffffffffffffffffff167fddf252ad1be2c89b69c2b068fc378daa952ba7f163c4a11628f55a4df523b3ef846040516106b59190610ace565b60405180910390a3600190509392505050565b600180546106d590610c0f565b80601f016020809104026020016040519081016040528092919081815260200182805461070190610c0f565b801561074e5780601f106107235761010080835404028352916020019161074e565b820191906000526020600020905b81548152906001019060200180831161073157829003601f168201915b505050505081565b600081600460003373ffffffffffffffffffffffffffffffffffffffff1673ffffffffffffffffffffffffffffffffffffffff1681526020019081526020016000205410156107da576040517f08c379a00000000000000000000000000000000000000000000000000000000081526004016107d190610db1565b60405180910390fd5b81600460003373ffffffffffffffffffffffffffffffffffffffff1673ffffffffffffffffffffffffffffffffffffffff16815260200190815260200160002060008282546108299190610d31565b9250508190555081600460008573ffffffffffffffffffffffffffffffffffffffff1673ffffffffffffffffffffffffffffffffffffffff168152602001908152602001600020600082825461087f9190610cdb565b925050819055508273ffffffffffffffffffffffffffffffffffffffff163373ffffffffffffffffffffffffffffffffffffffff167fddf252ad1be2c89b69c2b068fc378daa952ba7f163c4a11628f55a4df523b3ef846040516108e39190610ace565b60405180910390a36001905092915050565b600081519050919050565b600082825260208201905092915050565b60005b8381101561092f578082015181840152602081019050610914565b8381111561093e576000848401525b50505050565b6000601f19601f8301169050919050565b6000610960826108f5565b61096a8185610900565b935061097a818560208601610911565b61098381610944565b840191505092915050565b600060208201905081810360008301526109a88184610955565b905092915050565b600080fd5b600073ffffffffffffffffffffffffffffffffffffffff82169050919050565b60006109e0826109b5565b9050919050565b6109f0816109d5565b81146109fb57600080fd5b50565b600081359050610a0d816109e7565b92915050565b6000819050919050565b610a2681610a13565b8114610a3157600080fd5b50565b600081359050610a4381610a1d565b92915050565b60008060408385031215610a6057610a5f6109b0565b5b6000610a6e858286016109fe565b9250506020610a7f85828601610a34565b9150509250929050565b60008115159050919050565b610a9e81610a89565b82525050565b6000602082019050610ab96000830184610a95565b92915050565b610ac881610a13565b82525050565b6000602082019050610ae36000830184610abf565b92915050565b600060ff82169050919050565b610aff81610ae9565b82525050565b6000602082019050610b1a6000830184610af6565b92915050565b60008060408385031215610b3757610b366109b0565b5b6000610b45858286016109fe565b9250506020610b56858286016109fe565b9150509250929050565b600060208284031215610b7657610b756109b0565b5b6000610b84848285016109fe565b91505092915050565b600080600060608486031215610ba657610ba56109b0565b5b6000610bb4868287016109fe565b9350506020610bc5868287016109fe565b9250506040610bd686828701610a34565b9150509250925092565b7f4e487b7100000000000000000000000000000000000000000000000000000000600052602260045260246000fd5b60006002820490506001821680610c2757607f821691505b602082108103610c3a57610c39610be0565b5b50919050565b7f496e73756666696369656e742062616c616e6365000000000000000000000000600082015250565b6000610c76601483610900565b9150610c8182610c40565b602082019050919050565b60006020820190508181036000830152610ca581610c69565b9050919050565b7f4e487b7100000000000000000000000000000000000000000000000000000000600052601160045260246000fd5b6000610ce682610a13565b9150610cf183610a13565b9250827fffffffffffffffffffffffffffffffffffffffffffffffffffffffffffffffff03821115610d2657610d25610cac565b5b828201905092915050565b6000610d3c82610a13565b9150610d4783610a13565b925082821015610d5a57610d59610cac565b5b828203905092915050565b7f496e73756666696369656e742046756e64730000000000000000000000000000600082015250565b6000610d9b601283610900565b9150610da682610d65565b602082019050919050565b60006020820190508181036000830152610dca81610d8e565b905091905056fea264697066735822122024de87f76058f2ac063d027f775e6fc4fff4eaf16b28a7847d03785c6e4986e364736f6c634300080f0033",
  "immutableReferences": {},
  "source": "// SPDX-License-Identifier: MIT\r\n\r\npragma solidity ^0.8.6;\r\n\r\ncontract Tether {\r\n    string public name = \"Tether\";\r\n    string public symbol = \"USDT\";\r\n    uint256 public totalSupply  = 1000000000000000000000000;  // 1 million tokens\r\n    uint8 public decimals = 18;\r\n    \r\n    event Transfer(\r\n        address indexed _from,\r\n        address indexed _to,\r\n        uint _value\r\n    );\r\n\r\n    event Approval (\r\n        address indexed _owner,\r\n        address indexed _spender,\r\n        uint _value\r\n    );\r\n     \r\n    mapping(address => uint256) public balanceOf; // to keep track of the balances of all perticular users.\r\n    mapping(address =>  mapping(address => uint256)) public allowances;\r\n    \r\n    \r\n    constructor() public {\r\n        balanceOf[msg.sender] = totalSupply;\r\n    }\r\n\r\n    // Function to transfer the balances\r\n    function transfer(address _to, uint256 _value) public returns(bool success) {\r\n        require(balanceOf[msg.sender] >= _value, \"Insufficient Funds\");\r\n        balanceOf[msg.sender] -= _value;\r\n        balanceOf[_to] += _value;\r\n        emit Transfer(msg.sender, _to, _value);\r\n        return true;\r\n    }\r\n\r\n\r\n\r\n    // Third party tranfer\r\n    function tranferFrom(address _from, address _to, uint256 _value) public returns(bool success) {\r\n        require(balanceOf[_from] >= _value, \"Insufficient balance\");\r\n        require(allowances[_from][msg.sender] >= _value, \"Insufficient balance\");\r\n        balanceOf[_to] += _value;\r\n        balanceOf[_from] -= _value;\r\n        allowances[msg.sender][_from] -= _value;\r\n        emit Transfer(_from, _to, _value);\r\n        return true;\r\n    }\r\n\r\n\r\n    // Approve the transaction\r\n    function approve(address _spender, uint256 _value) public returns(bool success) {\r\n        allowances[msg.sender][_spender] = _value;\r\n        emit Approval(msg.sender, _spender, _value);\r\n        return true;\r\n    }\r\n\r\n\r\n\r\n}",
  "sourcePath": "C:\\blockchain projects\\Defi-staking-app\\src\\contracts\\Tether.sol",
  "compiler": {
    "name": "solc",
    "version": "0.8.15+commit.e14f2714.Emscripten.clang"
  },
  "schemaVersion": "3.4.7",
  "updatedAt": "2022-06-17T05:17:45.463Z",
  "networkType": "ethereum",
  "devdoc": {
    "kind": "dev",
    "methods": {},
    "version": 1
  },
  "userdoc": {
    "kind": "user",
    "methods": {},
    "version": 1
  }
}